S01D0000776562696E61722D64656D6F2D627861726D2D6A612E737265630E
S3150800000020240020E525000871250008732500082E
S3150800001075250008772500087925000800000000E6
S315080000200000000000000000000000007B2500081A
S315080000307D250008000000007F25000881250008AE
S31508000040192600081D26000821260008252600086E
S31508000050292600082D26000831260008352600081E
S31508000060392600083D2600084126000845260008CE
S31508000070492600084D26000851260008552600087E
S31508000080592600085D26000861260008652600082E
S31508000090692600086D2600087126000875260008DE
S315080000A0792600087D26000881260008852600088E
S315080000B0892600088D26000891260008952600083E
S315080000C0992600089D260008A1260008A5260008EE
S315080000D0A9260008AD260008B1260008B52600089E
S315080000E0B9260008BD260008C1260008C52600084E
S315080000F0C9260008CD260008D1260008D5260008FE
S31508000100D9260008DD260008E1260008E5260008AD
S31508000110E9260008ED260008F1260008F52600085D
S31508000120F9260008FD26000801270008052700080B
S31508000130092700080D2700081127000815270008B9
S31508000140192700081D270008212700082527000869
S31508000150292700082D270008312700083527000819
S31508000160392700083D2700084127000845270008C9
S31508000170492700084D270008512700085527000879
S31508000180592700085D270008612700086527000829
S31508000190692700086D2700087127000875270008D9
S315080001A0792700087D2700088127000800F5E070F8
S315080001B00268914203D343681A44914202D3806885
S315080001C00028F5D170471849086880B94FF480505F
S315080001D048604FF480324FF0FF30C8600861042051
S315080001E0124B8A604861C3F8BC01114808600120B7
S315080001F0704701F1080313F0070F0EBF0023C3F180
S31508000200080303F007031944D21A8161C26042F059
S3150800021001034B60091D4FF0280C41F802C0024A41
S315080002201369C36170470000F8030020000100202D
S315080002306859883C2DE9F84F84B00646AFF300802C
S31508000240F52E1E4D80F013820B2E31BF10260B366D
S31508000250F608F6002868F408E04010F0030F4AD0C4
S31508000260C04300F00100041905F1280000EBC4089A
S31508000270E700D8F808607068C008C000B84218BF20
S3150800028001F0F6F9D6F80890464508BF01F0F0F9EE
S315080002904E4508BF01F0ECF97068C008C000B842C6
S315080002A018BF01F0E5F9C8450AD12868012101FA05
S315080002B004F420EA04042C6010E000BF00010020CA
S315080002C02869814508D3D9F80C10B14204D1C8F879
S315080002D00890C9F80C8001E001F0CAF947F003005C
S315080002E0311D7060301DCA5942F00102C25106F133
S315080002F0080800F01DBFA968B14280F0A88300284D
S3150800030000F0A2804FF0010808FA04F1490000FA4B
S3150800031004F4484201430C4060420440641E200B2A
S3150800032000F01000C440610901F00801CC40A208A1
S3150800033002F00402D440630803F002030818DC4004
S315080003401018C4F3400718183818FC40241805F18B
S31508000350280000EBC40AE700DAF80890D9F8040088
S31508000360C008C000B84218BF01F082F9D9F808B031
S31508000370D14508BF01F07CF9D94508BF01F078F9E5
S31508000380D9F80400C008C000B84218BF01F070F9D7
S31508000390DA4506D1286808FA04F420EA04042C6031
S315080003A00DE029698B4508D3DBF80C00484504D1D4
S315080003B0CAF808B0CBF80CA001E001F059F9BF1B48
S315080003C046F0030009F10402C9F8040047F00101E8
S315080003D0915109EB06020192D751AC684FEAD40A4B
S315080003E0BAF11F0F88BF01F043F934B3CDF800A066
S315080003F005F128006E6900EBCA0AD346102C38BFEF
S3150800040001F036F92968009821FA00F2D30704D4D6
S3150800041008FA00F00843286007E0DAF808002969B6
S3150800042088422CBF834601F023F9CAF80860CBF846
S315080004300C60C6F808B0C6F80CA0AF6009F1080849
S315080004400198686100F074BE6868002800F020838F
S3150800045041420840401E010B01F01001C840420904
S3150800046002F00802D040830803F00403D840440889
S3150800047004F002045118E0405918C0F34007611807
S3150800048005F598787918F840401858F82010486803
S31508000490C008C0008A46A0EB060B08E0014648687B
S315080004A0C008C000801B58453CBF83468A46086979
S315080004B00028F3D149690029F1D128698245C0F09D
S315080004C0D380DAF80410C90806EB0B09C9004945B8
S315080004D018BF01F0CDF80AEB06008245019080F0BE
S315080004E0C380DAF80C40DAF8187054450DD0DAF8FB
S315080004F008002969884223D3C268524504BFA16807
S3150800050051451DD1C460A0601CE00AF114010C68B5
S3150800051034B90AF110010C68A4B101E011460C685F
S3150800052004F114021068002802BF04F110021068D2
S315080005300028F3D12869814202D300220A6001E02B
S3150800054001F096F8002F38D0DAF81C0008EB800185
S315080005500A6892450AD11CBB6A68012303FA00F0AF
S3150800056022EA000068600020086026E029698F42B8
S3150800057013D33869504514BF7C613C61ECB12969D5
S315080005808C4218D3A761DAF8100058B1884226BF02
S315080005902061846101F06CF804E001F069F8EDE788
S315080005A00C60ECE7DAF8140038B12969884202D3FE
S315080005B06061846101E001F05BF8BBF1100F0ED2B7
S315080005C049F003000AF10401CAF804000AF104001C
S315080005D051F8092042F0010240F809203EE046F0B1
S315080005E003010AF10402CAF804104BF00100905105
S315080005F0019941F80BB0A8680090C4081F2C88BF61
S3150800060001F036F8009828B305F1280000996F69BB
S3150800061000EBC408C146102938BF01F029F828683C
S3150800062020FA04F1CA0705D4012101FA04F40443A7
S315080006302C6007E0D8F80800296988422CBF814653
S3150800064001F016F8C8F80870C9F80C70C7F80890D1
S31508000650C7F80C80C5F808B0019868611AF108084F
S3150800066000F0F58100F064BD01F002F8EFE116F143
S31508000670400F28BF4FF0FF3680F0E9810B36F608A9
S315080006806B68F600002B00F0E2810027300AC6F1FD
S31508000690000908BF002423D0B0F5803F28BF1F24D7
S315080006A01ED2A0F58071090C01F008018840A0F55A
S315080006B08052120C02F004029040A0F58044240CEB
S315080006C0C1F10E0104F00204891A091BA04001EBCE
S315080006D0D031C81D26FA00F404F0010404EB4104E5
S315080006E005F5987858F8240030B31F2C0FBFB44688
S315080006F04FEA540CCCF1190C06FA0CFCBE464946D6
S3150800070001E04FEA4C0C4268D208D200921B8A429A
S3150800071002D2110007460CD0426910304FEADC7944
S3150800072050F82900002A1CBF824296460028E8D1C4
S3150800073070468946A8BBB7BB012101FA04F46400D8
S3150800074060420443234000F08281584203405B1E06
S31508000750180B00F01000C340590901F00801CB40FE
S315080007609A0802F00402D3405C0804F00204081850
S31508000770E3401018C3F3400C2018604423FA0CF326
S315080007801B1858F823000CE008464168C908C90038
S31508000790891B49453CBF8946074601690029F3D1AB
S315080007A040690028F1D1002F00F05181A868801B0C
S315080007B0814580F04C8129698F42FFF455AF7868EE
S315080007C0C008C00006EB0901884218BF00F050FFB8
S315080007D007EB060B5F45BFF447AFFC68D7F818A0D0
S315080007E0BC420CD0B8682969884223D3C268BA4289
S315080007F004BFA168B9421DD1C460A0601CE007F11E
S3150800080014010C6834B907F110010C68A4B101E0B1
S3150800081011460C6804F114021068002802BF04F19E
S31508000820100210680028F3D12869814202D30022F9
S315080008300A6001E000F01CFFBAF1000F39D0F86930
S3150800084008EB80010A6897420AD134BB6A6801231B
S3150800085003FA00F022EA000068600020086028E039
S3150800086029698A4516D3DAF81000B84214BFCAF8BF
S315080008701440CAF81040E4B129698C4217D3C4F869
S3150800088018A0386958B1884226BF2061846100F0F3
S31508000890EFFE04E000F0ECFEEDE70C60ECE77869AB
S315080008A038B12969884202D36061846101E000F0A9
S315080008B0DFFEB9F1100F0CD2B14449F00300391D1F
S315080008C07860381D51F8092042F0010240F80920E5
S315080008D0B9E046F003013A1D796049F001009051EC
S315080008E04FEAD9004BF809901F2822D805F12801AC
S315080008F001EBC004296821FA00F2D307A04605D403
S31508000900012202FA00F00843286006E0A068296977
S3150800091088422CBF804600F0ABFEC4F808B007F149
S315080009200800C8F80CB040F8068007F10C018C5195
S3150800093089E05FEA192008BF002123D0B0F5803F7F
S3150800094028BF1F211ED2A0F58072120C02F00802E1
S315080009509040A0F58051090C01F004018840A0F5EB
S3150800096080431B0CC2F10E0203F00203521AD21A7C
S31508000970984002EBD032D01D29FA00F101F00101AE
S3150800098001EB420107F11403CBF81C1000229A511F
S3150800099007F1100308EB81009A516A6822FA01F3FD
S315080009A0DC0711D4012303FA01F111436960C0F889
S315080009B000B0CBF8180007F1080107F10C0040F861
S315080009C006B041F806B03EE002681F291DBF490877
S315080009D0C1F1190109FA01F1494600E002465068D9
S315080009E0C008C000484518D002F11003C80F03EB31
S315080009F08003490018680028F0D12869834220D36B
S31508000A00C3F800B007F10C01CBF8182041F806B07E
S31508000A1007F1080040F806B015E0296990688A428F
S31508000A2028BF88420DD3C0F80CB007F10801C2F8F8
S31508000A3008B0885107F10C0082510022CBF8182023
S31508000A4001E000F015FE17F1080840F07183A86868
S31508000A50B0421DD3811B6A69102909D39319A9606D
S31508000A6041F001005860595046F0030656600BE005
S31508000A700021A96040F00304111D5460141D0E588E
S31508000A8046F00106265000236B6102F108084FE381
S31508000A90E8688642C0F03C83DFF8CC9BD9F80000B2
S31508000AA008B9FFF790FBD9F8081088192F30491EA6
S31508000AB020EA01018E4280F0398305F5D877B868B7
S31508000AC038B13A6889188A4280F030838842C0F083
S31508000AD02D8300F0EDFD00281CBFD0F8008010F132
S31508000AE0010F00F0238339687A68414439608A42E5
S31508000AF038BF7960AC6904BB296909B1884200D25C
S31508000B00286100213861C7F81480F9614FF0FF3178
S31508000B10D9F800206A62296205F12802002192604C
S31508000B20D26002F1080353611361891C10321F2930
S31508000B30F5D9A8F1280201461DE005F5E0710A4637
S31508000B40814600E09268D2B110685368034499451B
S31508000B50F8D1107B030712D413689C420FD3D2F83E
S31508000B6004C063449C420AD2C444C2F804C0214665
S31508000B70E86808EB00022846FFF73BFBC5E2286950
S31508000B80814538BFC5F8109009EB080000E0896870
S31508000B90002900F0C1810A688242F8D1087B020761
S31508000BA000F1BA810868C1F800904A6842444A6070
S31508000BB009F1080111F0070F08BFCDF8049006D017
S31508000BC0C1F1080101F0070109EB0102019200F1E8
S31508000BD0080111F0070F04D0C1F1080101F007015F
S31508000BE0084480460198A8EB00018419A1EB060B7E
S31508000BF0274646F003064660474528BF00F038FDFD
S31508000C0098F80400C10758BF00F032FDBBF1100F79
S31508000C1038BF00F02DFDA869804508D1E9688B44E6
S31508000C20C5F80CB0AF614BF00100786070E16869F7
S31508000C3080450AD1A9686F618B44C5F808B04BF0A6
S31508000C400100786047F80BB062E1D8F8040000F0BC
S31508000C500301012940F0BC80C008C000C1081F2953
S31508000C60039040D8D8F808200092D8F80C60029172
S31508000C70B04508BF00F0FCFC0098804508BF00F0AE
S31508000C80F7FCD8F804000299C008C000B0EBC10F01
S31508000C9018BF00F0EDFC0299009A05F1280000EB58
S31508000CA0C100824208D011462A699142C0F08B8061
S31508000CB0CA68424540F0878000998E4206D102985C
S31508000CC02A68012383409A432A607EE0864205D03B
S31508000CD029698E4277D3B068404574D10098C660BA
S31508000CE00099B16071E0D8F818000090D8F80C6047
S31508000CF046450DD0D8F808002969884223D3C2682A
S31508000D00424504BFB16841451DD1C660B0601CE0CC
S31508000D1008F114010E6836B908F110010E68A6B17B
S31508000D2001E011460E6806F114021068002802BF99
S31508000D3006F1100210680028F3D12869814202D30F
S31508000D4000220A6001E000F093FC009800283CD0DD
S31508000D50D8F81C0005F5987101EB80010A689045E2
S31508000D600AD12EBB6A68012303FA00F022EA0000C2
S31508000D7068600020086028E000992869814214D339
S31508000D800869404514BF4E610E61F6B129698E4265
S31508000D9019D30098B061D8F8100058B1884226BF18
S31508000DA03061866100F064FC04E000F061FCECE769
S31508000DB00E60EBE7D8F8140038B12969884202D3E7
S31508000DC07061866101E000F053FC039988448B4406
S31508000DD0D8F8041049084900C8F804104BF0010077
S31508000DE078604FEADB0647F80BB01F2E22D805F1CC
S31508000DF0280000EBC604A146BBF1100F38BF00F06F
S31508000E0037FC286820FA06F1CA0705D4012101FA39
S31508000E1006F606432E6006E0A068296988422CBFBC
S31508000E20814600F025FCA760C9F80C70C7F8089041
S31508000E30FC606DE05FEA1B2008BF002123D0B0F5F7
S31508000E40803F28BF1F211ED2A0F58072120C02F027
S31508000E5008029040A0F58051090C01F00401884071
S31508000E60A0F580431B0CC2F10E0203F00203521ACE
S31508000E70D21A984002EBD032D01D2BFA00F101F0BD
S31508000E80010101EB4201F961002305F598727B61C6
S31508000E9002EB81003B616A6822FA01F3DE0707D498
S31508000EA0012303FA01F1114369600760B8611DE087
S31508000EB002681F291DBF4908C1F119010BFA01F182
S31508000EC0594600E002465068C008C000584510D090
S31508000ED002F11003C80F03EB8003490018680028C5
S31508000EE0F0D12869834211D31F60BA61FF60BC60E4
S31508000EF00EE0296990688A4228BF884206D3C760EF
S31508000F009760B860FA600020B86101E000F0B0FBB5
S31508000F10019800F108080BE121462846FFF746F933
S31508000F200168406808440090A0F1270111F0070005
S31508000F3000980EBF0021C1F1080101F0070108441D
S31508000F40A0F12F0B04F110018B4538BFA3460BF116
S31508000F501802002102920191A8F128024946284662
S31508000F60FFF747F90BF1080010F0070F18BF00F05C
S31508000F707FFB1B20CBF8040005F5E07292E80950C8
S31508000F800BF1080181E8095000210BF10800F9610D
S31508000F90B861009A02980199C7F81090C7F81480AA
S31508000FA0072300E0001D491C00F10807974243602B
S31508000FB0F8D30129D8BF00F05BFBA34500F0A58054
S31508000FC0ABEB040B201D221D50F80B1049084900F5
S31508000FD042F80B104BF0010060604FEADB0944F859
S31508000FE00BB0B9F11F0F22D805F1280000EBC9078D
S31508000FF0B846BBF1100F38BF00F03AFB286820FA54
S3150800100009F1CA0705D4012101FA09F10843286044
S3150800101006E0B868296988422CBF804600F028FB9C
S31508001020BC60C8F80C40C4F80880E7606DE05FEA69
S315080010301B2008BF002123D0B0F5803F28BF1F2101
S315080010401ED2A0F58072120C02F008029040A0F59C
S315080010508051090C01F004018840A0F580431B0C5F
S31508001060C2F10E0203F00203521AD21A984002EB9A
S31508001070D032D01D2BFA00F101F0010101EB42013B
S3150800108005F59872002302EB8100E1616361236133
S315080010906A6822FA01F3DF0707D4012303FA01F18C
S315080010A0114369600460A0611DE002681F291DBF25
S315080010B04908C1F119010BFA01F1594600E0024647
S315080010C05068C008C000584510D002F11003C80F78
S315080010D003EB8003490018680028F0D12869834289
S315080010E011D31C60A261E460A4600EE029699068CF
S315080010F08A4228BF884206D3C4609460A060E26032
S315080011000020A06101E000F0B3FAE86886420DD23B
S31508001110801BA969E8608A19AA6140F0010050603D
S3150800112046F003064E6001F1080801E04FF000089A
S31508001130AFF30080404605B0BDE8F08F002800D127
S3150800114070472DE9F047A0F10805AFF30080DFF8F6
S315080011501C6531698D42C0F08482686800F003021C
S31508001160012A00F07E82C2084FEAC209C20705EBCF
S31508001170090839D42C6810F0030F00F06E8260421B
S3150800118005448D42A144C0F06C827069854200F026
S31508001190DE80E408202C72D2D5F80CA0AF6855453D
S315080011A008BF00F065FABD4208BF00F061FA68683A
S315080011B0C008C000B0EBC40F18BF00F059FA06F11A
S315080011C0280000EBC400874205D031698F4253D30B
S315080011D0FA68AA4250D1BA4540D13068012101FACD
S315080011E004F420EA04043460454580F03A82D8F8CD
S315080011F00440E00740F13582A10700F18381B06918
S31508001200804540F0B780F168B5618944C6F80C900E
S3150800121049F00100686071698D4202D10020706151
S31508001220B060F169494580F01882DFF83C241068FF
S3150800123008B9FEF7C8FFB169002900F00E82F06808
S31508001240292824BF3046FEF7B1FFF069F1688842C5
S3150800125080F003824FF0FF30F061FEE1824506D050
S315080012603069824508D3DAF80810A94204D1C7F8CC
S315080012700CA0CAF80870B7E700F0FAF9B4E7EC680A
S31508001280AF69AC420BD0A868884222D3C168A9428C
S3150800129004BFA268AA421CD1C460A0601BE005F185
S315080012A01402146834B905F1100214689CB101E0FF
S315080012B01A46146804F114031868002802BF04F1DA
S315080012C0100318680028F3D18A4202D3002111605E
S315080012D001E000F0CDF9002F86D0E86906F598718F
S315080012E001EB80010A6895420AD124BB7268012382
S315080012F003FA00F022EA000070600020086073E735
S3150800130031698F4214D33869A84214BF7C613C61A5
S31508001310002C3FF469AF31698C42ADD3A7612869C7
S3150800132058B1884226BF2061846100F0A1F904E023
S3150800133000F09EF9ECE70C60EDE7686900283FF4D9
S3150800134053AF3169884297D3606184614CE798F856
S31508001350040000F0030003287FF446AFC6F808909F
S3150800136049F00101D8F8040040084000C8F8040014
S3150800137069600AE0706980450AD1B1687561894477
S31508001380C6F8089049F00100686045F8099064E1DC
S31508001390E408E400A144E408202C3AD2D8F80CA0CA
S315080013A0D8F80870D04508BF00F062F9B84508BFFC
S315080013B000F05EF9D8F80400C008C000B0EBC40F0E
S315080013C018BF00F055F906F1280000EBC400874263
S315080013D007D031698F42C0F08880FA68424540F0EC
S315080013E08480BA4507D13068012101FA04F420EA5D
S315080013F0040434607BE0824506D03069824574D3A4
S31508001400DAF80810414570D1C7F80CA0CAF8087078
S315080014106DE0D8F80C40D8F8187044450DD0D8F8C7
S3150800142008003169884223D3C268424504BFA168CF
S3150800143041451DD1C460A0601CE008F114010C6888
S3150800144034B908F110010C68A4B101E011460C6822
S3150800145004F114021068002802BF04F11002106893
S315080014600028F3D13069814202D300220A6001E0E4
S3150800147000F0FEF8002F3AD0D8F81C0006F598714F
S3150800148001EB80010A6890450AD11CBB72680123EA
S3150800149003FA00F022EA000070600020086026E0E7
S315080014A031698F4213D33869404514BF7C613C616A
S315080014B0ECB131698C4218D3A761D8F8100058B13D
S315080014C0884226BF2061846100F0D2F804E000F06B
S315080014D0CFF8EDE70C60ECE7D8F8140038B13169BD
S315080014E0884202D36061846101E000F0C1F849F0E6
S315080014F00100686045F8099071698D420BD1C6F8FC
S315080015000890AAE064086400C8F8044049F001009D
S31508001510686045F809904FEAD907202F22D206F1CC
S31508001520280000EBC704A046B9F1100F38BF00F039
S315080015309FF8306820FA07F1CA0705D4012101FA95
S3150800154007F70743376006E0A068316988422CBF71
S31508001550804600F08DF8A560C8F80C50C5F80880DC
S31508001560EC607AE05FEA192008BF002123D0B0F5C5
S31508001570803F28BF1F211ED2A0F58072120C02F0F0
S3150800158008029040A0F58051090C01F0040188403A
S31508001590A0F580431B0CC2F10E0203F00203521A97
S315080015A0D21A984002EBD032D01D29FA00F101F088
S315080015B0010101EB420106F59872002302EB810056
S315080015C0E9616B612B61726822FA01F3DC0707D4C3
S315080015D0012303FA01F1114371600560A8611DE05A
S315080015E002681F291DBF4908C1F1190109FA01F14D
S315080015F0494600E002465068C008C000484510D079
S3150800160002F11003C80F03EB80034900186800288D
S31508001610F0D13069834211D31D60AA61ED60AD60D7
S315080016200EE0316990688A4228BF884206D3C560B1
S315080016309560A860EA600020A86101E000F018F84B
S31508001640306A401E08D13062D6F8C80100E08068CA
S315080016500028FCD14FF0FF303062AFF30080BDE8C0
S31508001660F08700F005F8F8E7F803002000010020ED
S31508001670012000F033B830B4002513E050F8042BED
S31508001680D30744BFA9F101039A18091F042942F890
S31508001690045BFAD213468C0744BF15809B1CC90706
S315080016A048BF1D7050F8041B0029E7D130BC7047AD
S315080016B00749086808B1002070470648C008C000F6
S315080016C008600549C908C900091A0160704700BFC2
S315080016D014040020272400202044002080B500F0B0
S315080016E007F8024A11001820ABBEFBE726000200E5
S315080016F010B500F052F8020000230024E4431068F5
S31508001700A04203D011000220ABBE13605068A0426D
S3150800171003D0111D0220ABBE536010BDF0B583B0D7
S31508001720040000F03AF8A10047183D680026F64381
S31508001730B54216D100F01AF83D68B5420FD100BF80
S3150800174009A00090002C01D1002000E0042001909F
S315080017500320029069460120ABBE05003D6000F0FB
S3150800176014F8280003B0F0BD3A7474000C4801213F
S31508001770BFF35F8FD0E84F3FC0E8421F002AF9D178
S31508001780BFF35F8F002BF3D170470548BFF35F8F18
S3150800179000210170BFF35F8F704702487047000051
S315080017A018040020F800002070B505461C000846FD
S315080017B0164604D016F8011BA847641EFAD170BD58
S315080017C02DE9FC4383B08146884617461D4607E047
S315080017D001233A4641464846FFF7E6FF80467F1C06
S315080017E03878E0B12528F3D17978BF1C252912D09D
S315080017F0582958D0632915D0642918BF692917D0E4
S315080018006F2950D0702953D0732957D0752918BF1E
S31508001810782948D0E4E74046C8478046E0E705B05F
S31508001820BDE8F083286850F8041B2860C9B2F2E7BF
S31508001830286850F8046B2860002E03D52D214046F1
S31508001840C847804664216F2908BF082205D041F0A1
S315080018502000782814BF0A2210220B246429304657
S3150800186002D1002E48BF4042B0FBF2FC02FB1C002E
S315080018703030641EC3B23A2BA4BFA1F1510630180A
S315080018800DF804005FEA0C0001D0002CECDC0DEB2F
S315080018900406D4F10B044046BFD016F8011BC8470E
S315080018A0641EFAD1B9E7286850F8046B2860CAE7BD
S315080018B0286850F8046B28607821C4E7286850F82F
S315080018C0046B2860304600F009F804004046A4D0AE
S315080018D016F8011BC847641EFAD19EE700F10103FA
S315080018E0810704D010F8011B820781B1FAD102687A
S315080018F0A2F10131914311F0803104BF50F8042F51
S31508001900F6E709BAB1FA81F100EBD100401CC01A1A
S315080019107047000080B53C48016851F470010160C9
S315080019203A49086850F0010008600020384A1060FB
S315080019300A68384802400A603748384A106008681A
S3150800194030F48020086000203549086000F005F86A
S315080019505FF000603349086001BD82B00020019045
S31508001960002000902949086850F48030086008680B
S3150800197010F4003000900198401C0190009800284F
S3150800198003D10198B0F5A06FF1D10868800302D59C
S315080019900120009001E000200090009801282FD136
S315080019A02148026852F0805202602048026852F4C8
S315080019B040420260164802680260026852F4004219
S315080019C00260026852F4A0520260194A134B1A6068
S315080019D00A6852F080720A600A689201FCD540F2E1
S315080019E00571144A11600168890889000160016857
S315080019F051F002010160016811F00C010829FAD1C1
S31508001A0002B070470000000088ED00E00038024090
S31508001A1008380240FFFFF6FE103000240438024062
S31508001A200C38024008ED00E04038024000700040E3
S31508001A3008544007003C024010F1010F00D17047DE
S31508001A4010B4404B00221C46216879B1A168521C8B
S31508001A5061B12169521C002908D0A169521C29B11B
S31508001A60521C2034102AEFD310BC704743F83200BA
S31508001A7003EBC2020021516010BC704710B4314A12
S31508001A80002113461C6884421EBF491C9C68844278
S31508001A901EBF491C1C69844209D09C69491C8442A2
S31508001AA005D0491C20331029ECD310BC70470023FD
S31508001AB042F8313002EBC1014B6010BC704770B47C
S31508001AC0204C002325462E688E421EBF5B1CAE683E
S31508001AD08E421EBF5B1C2E698E4209D0AE695B1C06
S31508001AE08E4205D05B1C2035102BECD370BC70479A
S31508001AF0054604EBC303012A04BF59684D195D6006
S31508001B0070BC704710B40F4A002113461C68844203
S31508001B101EBF491C9C6884421EBF491C1C6984421E
S31508001B200AD09C69491C844206D0491C20331029D6
S31508001B30ECD310BC0020704702EBC100406810BC13
S31508001B4070470000D80200202DE9F8431400054626
S31508001B508946984667D0A77820463749794401F1DF
S31508001B60D8014822267800F069F804F14401A770E4
S31508001B70E1606161E16104F1440060602061A06197
S31508001B80206204F13001616206F0800699F80000CF
S31508001B90722808BF46F0010608D0772808BF46F025
S31508001BA01A0603D0612808BF46F016062680207854
S31508001BB010F0030F09D1204600F083F833E020889F
S31508001BC0810610D440F02000208019F8010F622801
S31508001BD0F5D02B2807D1208800F00302032A18BF66
S31508001BE040F00300F0D195B10898552808BF0122A6
S31508001BF001D0002218B1218841F0400100E0218877
S31508001C00284600F09DF80028E07011D502E05FEA4A
S31508001C1008000BD5AFF300800546204600F051F8C2
S31508001C202846AFF300800020BDE8F28384F80380DD
S31508001C302046BDE8F28300BFC8070000103A07D364
S31508001C4030B4B1E83810103AA0E83810F9D230BCF0
S31508001C50530724BFB1E80810A0E8081044BF51F89C
S31508001C60043B40F8043BD20724BF31F8022B20F886
S31508001C70022B44BF0B7803707047121F17D35B0003
S31508001C8009D151F8043B20F8023B1B0C121F20F81F
S31508001C90023BF6D20BE051F8043B00F8013B1B0A65
S31508001CA020F8023B1B0C121F00F8013BF3D238BF89
S31508001CB0121D521E24BF11F8013B00F8013BF8D84B
S31508001CC0704738B504000ED0207810F0030F03D003
S31508001CD094F90300002809D5AFF30080204600F0E8
S31508001CE079F8AFF300804FF0FF3032BD204600F0A0
S31508001CF0F9F80546AFF300802078410644BF6068CE
S31508001D0000F00CF90020606094F90300022804D959
S31508001D1000F006F908B14FF0FF35E06B48B100F066
S31508001D200BF908B14FF0FF35E06B00F0F7F800202B
S31508001D30E063204600F04EF8AFF30080284632BD37
S31508001D4080B500BF0DA201F0030352F823204B070C
S31508001D5048BF42F008020B0748BF42F40072CB06A0
S31508001D6048BF42F4807289064CBF42F4004242F4EE
S31508001D708042114600F0EAF840B202BD00000000B9
S31508001D8000000000010000000200000038B5374DD1
S31508001D90002000242A46116859B10988A1B1516862
S31508001DA0641C31B1098879B1641C0832082CF2D355
S31508001DB032BD4820FEF73EFA0028F9D045F824003F
S31508001DC080210180847032BD55F824004FF67F715A
S31508001DD0018032BD82B001780A062FD523490B68E7
S31508001DE000930022834203D1002341F8223022E0E7
S31508001DF04B680093012283421FBF02228B6800931F
S31508001E008342F1D0CB680093032283421FBF04228A
S31508001E100B6900938342E7D04B69009305228342FE
S31508001E201FBF06228B6900938342DDD00722CB6948
S31508001E3000938342D8D002B000F070B80021018028
S31508001E404FF0FF3200F14401C270C1604161C161C7
S31508001E5000F1440300F1440200F1300143600261DD
S31508001E6082610262416202B070470000D800002019
S31508001E7070B50546AFF30080288881042DD56E68B5
S31508001E80002400E00644EA6895F9030031469142C9
S31508001E9008D2521A00F07EF810F1010F09D0002876
S31508001EA0F0D106E00022002100F074F810F1010FCD
S31508001EB000D101246868E860A861E861298844B10E
S31508001EC041F4007129802846AFF300804FF0FF30B7
S31508001ED070BD4DF6FF70014029802846AFF300809B
S31508001EE0002070BDF8B5A0B9AFF3008000250A4EF2
S31508001EF008244FF0FF37306820B1FFF7B9FF0028F4
S31508001F0048BF3D46361D641EF5D1AFF3008028460E
S31508001F10F2BDBDE8F240ABE7D8000020FFF70EB9E6
S31508001F201CB50200009269460220ABBE04001000F0
S31508001F30FFF7A4FD200016BDE0B50090FFF7CEFC24
S31508001F40019069460E20ABBE03B000BD00B583B054
S31508001F50009000204A0400D401200222114202D037
S31508001F600300022018438A0502D502000420104304
S31508001F700822114002D00100082008430190009869
S31508001F80FFF7ACFC029069460120ABBEFFF754FD93
S31508001F9003B000BD80B5002802D400F003F802BDE6
S31508001FA0002002BD80B5002901D1002002BD01280C
S31508001FB001D0022802D100F004F802BD00F011F8A1
S31508001FC002BD30B583B00C0015000120FFF7A6FB53
S31508001FD000900194029569460520ABBE281A03B005
S31508001FE030BD18B583B00300140000930191029424
S31508001FF069460520ABBE01221900201AFFF75FFDCE
S3150800200004B010BD2DE9F04107468846387810F02F
S31508002010030F16461D4633D03846FFF763FF78BBD5
S31508002020B8F1000F1CBFD8E900018619012D2ED181
S315080020303888C10415D5396A07F14402384600F0D4
S315080020404DF83A6B044602B93A69F968384600F021
S3150800205045F8361B341A7A69F968384600F03EF8AE
S31508002060261A1EB94DB916F1010F09D097F90300C2
S315080020702A46314600F038F8064616F1010F09D10E
S315080020802320AFF300804FF0FF30BDE8F081022D2A
S31508002090E8D1EBE7388810F4405F0ED07868F8602E
S315080020A038617861B86107F144017868F861396286
S315080020B007F13000002178623963B8F1000F05D0C6
S315080020C0D8E9020107F13402C2E900013B884CF65F
S315080020D0FF6003403B800020BDE8F081914234BF99
S315080020E0511A0021084670473EB504000D00012A22
S315080020F002D1FFF707FD07E0022A07D10094002066
S31508002100019069460C20ABBE2D1801E0002A0CD1BF
S315080021100094019569460A20ABBE002805D1002225
S3150800212021002800FFF7CBFC01E00020C04303B0E4
S3150800213030BD10B50446E068A169884251D32188AC
S3150800214049F202030B40022B08D008044CBF4FF497
S3150800215000704FF48440014321803BE001F4C04203
S31508002160B2F5C04F06D1A168884203D32046FFF7CF
S31508002170B9FE78BB208810F4406F02BF606804F18E
S315080021804401884217D14FF40070FEF753F830B96E
S3150800219004F144006060E060401CA0600BE0218808
S315080021A041F040012180E0606060606100F50072E6
S315080021B06068A260E0616068A1682061A16120781A
S315080021C041070AD502220021204600F00CF810F13A
S315080021D0010F02D14FF0FF3010BD208840F4C040F7
S315080021E02080002010BD70B504460D461646AFF394
S315080021F0008033462A4600212046FFF703FF05469E
S315080022002046AFF30080284670BD000010B50400D4
S315080022102168244800F052F8E168234800F04EF897
S31508002220E068216990FBF1F1204800F047F810BDFD
S3150800223042F2107191FBF0F0704770B504000D0082
S31508002240002604E054F82600FFF7E0FF761CAE42AD
S31508002250F8DB2800FFF7ECFF0100154800F02EF820
S3150800226070BD0020704710B5E4B00DA1114800F00C
S3150800227039F80400002C04D10F4800F01FF801209B
S315080022800BE069462000FFF7ECFF01006846FFF700
S31508002290D4FF2000FFF715FD002064B010BD000034
S315080022A072000000F425000800260008D42500085E
S315080022B0C02500080C260008FC2400080EB4C0B58A
S315080022C0024603A800210190009101AB01210448B0
S315080022D078440C30FFF774FA06BC5DF810FB00BFB3
S315080022E0BD02000038B504460D46AFF30080FFF77F
S315080022F04DFD0246002000904FF0FF332946204648
S31508002300FFF722FC0446AFF30080204632BD2DE9D4
S31508002310FC4D016800F10805490805EBC102019268
S3150800232000F10803406800F0010A03EBC108400801
S3150800233008EBC00B00200021019A95422FD02B688C
S315080023406A68EE18324400920835009A9642F3D02D
S3150800235016F9014B009A964205D12B686A68EE1861
S3150800236032440092083516F8017B884210D1D845C8
S3150800237008BFFFF77DF9D8F80000D8F80410BAF1BD
S31508002380000F18BF48440144884208F10808EED0F7
S31508002390002C00F8017B05D5641CE6D1D5E7584624
S315080023A0BDE8F68D641ED5D5CFE738B50C46C5B25F
S315080023B02046AFF30080E068A169884204D320462E
S315080023C0FFF7B7FE00280FD4E068401CE06000F86D
S315080023D0015D2088010503D440050BD50A2D09D1D6
S315080023E02046FFF77FFD28B12046AFF300804FF067
S315080023F0FF3032BD2046AFF30080284632BD0000CC
S31508002400000000FF000000000000000000000000BF
S3150800241000000000000000000000000000000000AE
S31508002420000000000000000000000000000000009E
S31508002430000000000000000000000000000000008E
S31508002440000000000000000038B50D4D082428687B
S3150800245000281CBF017811F0030F05D090F903106E
S31508002460002958BFFFF72DFC2D1D641EEFD1BDE8CE
S315080024703840002200214FF0FF30FFF78BBD00BF28
S31508002480D800002010B5074979441831064C7C4419
S31508002490163404E00A68081D114488470146A1421B
S315080024A0F8D110BD2C000000540000004EF68851EB
S315080024B0CEF20001086840F470000860BFF34F8F41
S315080024C0BFF36F8F4FF00070E1EE100A70470000FF
S315080024D0A7F1FFFF1C030000000100200000000018
S315080024E02FFEFFFF02000000020000009802000015
S315080024F08900000000000020000100004572726F8C
S31508002500723A2066696C652063616E206E6F74206E
S315080025106265206F70656E65642E0A0000F00DF81E
S31508002520002801D0FFF7AEFFAFF300800020AFF31D
S315080025300080FFF798FE00F002F80120704700F0CF
S3150800254001B800000746FFF77FFF3846FFF7C6F8D1
S31508002550FBE700000548014603B4684680F309888E
S31508002560AFF30080FFF7A2FFFFF7D8FFA5EDF5FE52
S315080025707047FEE7FEE7FEE7FEE7704770477047DD
S3150800258080B500F001F801BD03490868002802D0AB
S315080025900868401E086070471004002038B50446D5
S315080025A00D46284600F006F8A84218BF0024204623
S315080025B032BD00000149FFF7F8BE00BF4800002001
S315080025C0417665726167652073616C6172793A203C
S315080025D025640A004461792773207061793A2025B9
S315080025E0640A000001488047014800471519000899
S315080025F0552500084E616D653A2025730A000000CE
S3150800260053616C6172793A2025640A0073746166B5
S31508002610662E747874000000FFF7FEBFFFF7FEBF52
S31508002620FFF7FEBFFFF7FEBFFFF7FEBFFFF7FEBFD0
S31508002630FFF7FEBFFFF7FEBFFFF7FEBFFFF7FEBFC0
S31508002640FFF7FEBFFFF7FEBFFFF7FEBFFFF7FEBFB0
S31508002650FFF7FEBFFFF7FEBFFFF7FEBFFFF7FEBFA0
S31508002660FFF7FEBFFFF7FEBFFFF7FEBFFFF7FEBF90
S31508002670FFF7FEBFFFF7FEBFFFF7FEBFFFF7FEBF80
S31508002680FFF7FEBFFFF7FEBFFFF7FEBFFFF7FEBF70
S31508002690FFF7FEBFFFF7FEBFFFF7FEBFFFF7FEBF60
S315080026A0FFF7FEBFFFF7FEBFFFF7FEBFFFF7FEBF50
S315080026B0FFF7FEBFFFF7FEBFFFF7FEBFFFF7FEBF40
S315080026C0FFF7FEBFFFF7FEBFFFF7FEBFFFF7FEBF30
S315080026D0FFF7FEBFFFF7FEBFFFF7FEBFFFF7FEBF20
S315080026E0FFF7FEBFFFF7FEBFFFF7FEBFFFF7FEBF10
S315080026F0FFF7FEBFFFF7FEBFFFF7FEBFFFF7FEBF00
S31508002700FFF7FEBFFFF7FEBFFFF7FEBFFFF7FEBFEF
S31508002710FFF7FEBFFFF7FEBFFFF7FEBFFFF7FEBFDF
S31508002720FFF7FEBFFFF7FEBFFFF7FEBFFFF7FEBFCF
S31508002730FFF7FEBFFFF7FEBFFFF7FEBFFFF7FEBFBF
S31508002740FFF7FEBFFFF7FEBFFFF7FEBFFFF7FEBFAF
S31508002750FFF7FEBFFFF7FEBFFFF7FEBFFFF7FEBF9F
S31508002760FFF7FEBFFFF7FEBFFFF7FEBFFFF7FEBF8F
S31508002770FFF7FEBFFFF7FEBFFFF7FEBFFFF7FEBF7F
S31508002780FFF7FEBF130104000044000020450000C7
S31508002790204400002044000020FC000344000020E0
S315080027A0FC00074400002030000020E0001302046B
S315080027B00101A8030020F8030020A8030020A803AD
S315080027C00020FC0003A8030020FC00078C00002062
S315080027D078000020E000130208020258030020A82F
S315080027E00300205803002058030020FC0003580368
S315080027F00020FC0007D4000020C0000020DD0008EF
S31208002800204800002090000020EC00F8FFA2
S7050800255578
